:020000021000EC
:10200000C00A0020E93601002F2603002F26030016
:102010004B3803002F2603002F2603002F26030032
:102020002F2603002F2603002F2603002F26030050
:102030002F26030048EA03004F2403002F26030045
:102040002F2603002F2603002F2603002F26030030
:102050002F2603002F2603002F2603002F26030020
:102060002F2603002F260300297F01009134010051
:10207000032503002F2603002F2603002F2603002D
:102080002F2603002F2603002F2603002F260300F0
:102090002F2603009D3E01002F2603002F2603005C
:1020A0002F2603002F2603002F2603002F260300D0
:1020B0002F260300D1DA03002F260300751003003A
:1020C000D7DA0300D3DA030035080300E3DA0300AC
:1020D000DBDA030039100300DFDA0300BDEF020092
:1020E000B51003002F2603002F2603002F26030020
:1020F0002F2603002F2603002F2603002F26030080
:102100002F2603002F2603002F2603002F2603006F
:102110002F2603002F2603002F2603002F2603005F
:102120002F2603002F2603002F2603002F2603004F
:102130002F26030000000000002370B5404C054628
:102140008AB0E36318B1008823600DF053FE3D4868
:102150002BF005F83C4E3D4B304633603C4B7360F2
:1021600025F0DCFD0021304618F0BCFB32A3D3E99A
:102170000023A062C4E9062325F0DBFDD4E9062391
:10218000194310434FF0FF33C4E90601CDE90001C4
:102190004FF0FF32A06A2BF029F802224FF0FF31F6
:1021A000A06A2BF028F801200DF012FA4FF400730A
:1021B00000222849A06A2BF074F8B0F5007F38D1CE
:1021C00000239422CDE9073309933C23CDE9033260
:1021D00005939623A06A03A9069318F09FFC35B3D4
:1021E000287C0DF0BBFE0546F0B9A06A2BF036F94D
:1021F0000DF05CFE0DF0CEF920B14FF4807000219F
:102200000AF09CFA0DF0D6F920B14FF400600021DD
:102210000AF094FA25F051FD012018F0B7FB0E4AA0
:102220000E49A06A25F078FD28460AB070BDFF204F
:10223000D7E70725F8E700BF0DD5015520000000BE
:10224000180F0020690345EC24220020A5F80100A6
:102250001822002018200020C17C0300017D03000B
:1022600010B5054C237833B9044B13B1044800E092
:1022700000BF0123237010BD681100200000000082
:10228000BC19040008B5034B1BB10349034800E027
:1022900000BF08BD000000006C110020BC19040044
:1022A000A3F5803A704700BF174B002B08BF134BB4
:1022B0009D46FFF7F5FF00218B460F461348144A51
:1022C000121A2BF05BFC0E4B002B00D098470D4BE5
:1022D000002B00D098470020002104000D000D487D
:1022E000002802D00C4800E000BF1FF0BFF820001B
:1022F000290020F0A0F81FF0A5F800BF000008009A
:102300000000000000000000C00A0020A40E002011
:10231000CC28002000000000000000002DE9F0475C
:1023200000250646DEB0F92229461FA81EAC25600E
:102330002BF024FCA6B12946B778CBB29F421CD81B
:102340001F2D40F2A68020F01AF920F019F9534B06
:102350002A465349186821F0C4F841F2450009E0C3
:1023600020F00DF920F00CF94E494C4B186821F083
:10237000B8F822205EB0BDE8F087736803EBC103B4
:102380005A785B6802321544EDB20131002BD4D18A
:1023900020F0F5F820F0F4F84349E6E77268A81C4D
:1023A00002EBC90A9AF801305FFA80F801336355ED
:1023B00012F839300135EDB263559AF80120DAF898
:1023C000041054FA80F02BF0B2FB9AF8015009F196
:1023D00001094544EDB25FFA89F39F42DED803203C
:1023E00001F008F920B12D4B3049186821F079F837
:1023F000042001F0FFF8002842D0E37F27481D9316
:10240000A37F2B491C93637F1B93237F1A93E37E47
:102410001993A37E1893637E1793237E1693E37D0F
:102420001593A37D1493637D1393237D1293E37C13
:102430001193A37C1093637C0F93237C0E93E37B17
:102440000D93A37B0C93637B0B93237B0A93E37A1B
:102450000993A37A0893637A0793237A0693E3791F
:102460000593A37904936379039323790293E37823
:102470000193A378009363782278006821F031F803
:1024800022462946307810F01FFC0A4B18600020C5
:1024900070E74FF000094D469DE700BF081200208D
:1024A000C4DE030080DE03009DDE0300F0DE0300D7
:1024B00018DF030084110020062330B50C468FB0CE
:1024C0005168054610688DF8033005AA01AB03C3B7
:1024D0001346206861680B9203C3218903A8198001
:1024E00040F20113ADF820300DF10303099340F6DB
:1024F0000923ADF828304FF40163ADF8303001AB5B
:102500000D9300238DF80D3003238DF80E3008ABAA
:1025100004938DF80C50FFF701FF084B186058B179
:1025200020F02DF820F02CF805484FF4D973054A17
:102530000549006820F0D5FF0FB030BD84110020A0
:1025400008120020BADF0300C3DF03000278044B47
:102550001A7042785A70827802489A701FF020B937
:102560008B250020DDDF030007B58DF804008DF812
:1025700006100DF1060011468DF805201FF050FFE2
:102580000B498DF807000B4804220988007801AB3D
:1025900010F034FC40B9032001F02CF820B1064BB8
:1025A0000649186820F09DFF03B05DF804FB00BFEA
:1025B000342500209625002008120020F2DF0300B9
:1025C00010B503220446144914482BF0A0FA08BBA6
:1025D0000322204612492BF09AFA78B9032001F021
:1025E00009F820B10F4B1049186820F07AFF01223A
:1025F0001146BDE81040B320FFF7B6BF032000F03E
:10260000F9FF20B1074B0949186820F06AFF012241
:102610000221EEE710BD00BFDA0C00208B25002060
:10262000D70C00200812002013E0030056E003003E
:1026300007B50B688DF8000011460DF102008DF80A
:102640000120CDF802301FF0EBFE0B498DF806009B
:102650000A486B4607220988007810F0CFFB40B982
:10266000032000F0C7FF20B1054B0649186820F091
:1026700038FF03B05DF804FB3425002096250020C8
:1026800008120020A1E0030007B58DF800008DF8C6
:1026900002100DF1020011468DF801201FF0C0FE5E
:1026A00012498DF8030012486B460422098800780D
:1026B00010F0A4FBB0B90F4B0320019300F09AFF78
:1026C00020B10D4B0D49186820F00BFF9DF802302A
:1026D000012B07D104220DEB0201B52001F0FC0112
:1026E000FFF7A6FF03B05DF804FB00BF3425002010
:1026F000962500200101020308120020E0E00300FB
:1027000008B505220F492BF002FA78B9032000F032
:1027100071FF20B10C4B0D49186820F0E2FE012238
:102720001146BDE80840B420FFF7AEBF032000F01B
:1027300061FF20B1044B0649186820F0D2FE012247
:102740000221EEE7D20C00200812002015E1030060
:1027500057E1030007B58DF804008DF806100DF160
:10276000060011468DF805201FF05AFE0B498DF822
:1027700007000B4804220988007801AB10F03EFBEB
:1027800040B9032000F036FF20B1064B0649186817
:1027900020F0A7FE03B05DF804FB00BF3425002045
:1027A0009625002008120020A1E1030008B50320AF
:1027B00000F020FF20B10F4B0F49186820F091FE68
:1027C000032000F017FF20B10A4B0C49186820F0D5
:1027D00088FE032000F00EFF20B1064B0849186860
:1027E00020F07FFEBDE808400122B6201146FFF729
:1027F000B1BF00BF08120020D0E1030004E20300D3
:102800004CE2030007B58DF804008DF806100DF1B9
:10281000060011468DF805201FF002FE0B498DF8C9
:1028200007000B4804220988007801AB10F0E6FA93
:1028300040B9032000F0DEFE20B1064B06491868BF
:1028400020F04FFE03B05DF804FB00BF34250020EC
:10285000962500200812002074E20300F0B504461B
:1028600001688FB093481EF015FF2368924A23F445
:102870007F4323F00703934200F07C820DD88F4AF8
:10288000934200F0EC8102F18072934200F0BE832B
:102890008B4A934259D00FB0F0BD8A4A934200F060
:1028A000F98202F17F7202F54032934200F0C38256
:1028B00002F17C429342EED1834D2B78012BEAD179
:1028C000032000F097FE20B1804B8149186820F06A
:1028D00008FE042000F08EFE002822D0637A7B4898
:1028E0000D93A37A7B490C93E37A0B93237B0A9392
:1028F000637B0993A37B0893E37B0793237C069375
:10290000637C0593A37C0493E37C0393237D029370
:10291000637D0193A37D0093E37D227E006820F018
:10292000E0FD042000F066FE30B1684BB4F80520ED
:102930006949186820F0D5FDA279637943EA02233A
:10294000664A138002232B70A5E7654E6549304621
:1029500010F06AFA644D286010B35C4C634920683B
:1029600020F0BFFD6249206820F0BBFD1FF007FE8C
:102970001FF006FE5F4B604A009360498823206881
:1029800020F0AFFD5E492B685E4A206820F0A9FD6B
:10299000286800F075FE5C49206820F0A2FDFEE783
:1029A0005A4C73790420E3713379A371F37863711E
:1029B000FE232371FF23E370B378A37073786370F1
:1029C0003378237000F016FE90B1E3793F48059309
:1029D000A3794F4904936379039323790293E378AE
:1029E0000193A378009363782278006820F079FD42
:1029F0000822464B0021182010F0D2F94D23454CF7
:102A00006F2223707923E27063706D224823227154
:102A1000A3706522E3717523627123722022622301
:102A20002860A2710420637200F0E4FDB0B1637A03
:102A300026480793237A38490693E3790593A379C7
:102A400004936379039323790293E3780193A37842
:102A5000009363782278006820F043FD0A22002169
:102A60000B202C4B10F09CF92860002856D0174CF6
:102A70001E49206820F035FD1D49206820F031FDF9
:102A80001FF07DFD1FF07CFD1A4B1B4A00931B4974
:102A9000C323206820F025FD19492B68194A2068B6
:102AA00020F01FFD286800F0EBFD1749206820F09A
:102AB00018FDFEE7A2E20300A0000901A000060045
:102AC000A0000100A0000A029725002008120020A3
:102AD000DCE4030002E503008EE50300342500205A
:102AE000842500208A25002084110020DAE40300D8
:102AF000BAE2030080E60300BADF0300BFE203008E
:102B0000CEE20300CBE20300E3E203008E250020C7
:102B1000F4E203009825002030E30300824C2046B5
:102B200010F048F80346286010B3804C80492068B4
:102B300020F0D7FC7F49206820F0D3FC1FF01FFD58
:102B40001FF01EFD7C4B7D4A00937D49C723206802
:102B500020F0C7FC7B492B687B4A206820F0C1FC31
:102B6000286800F08DFD7949206820F0BAFCFEE766
:102B7000A02200901146207810F034F8286010B39D
:102B80006A4C6B49206820F0ACFC6A49206820F050
:102B9000A8FC1FF0F4FC1FF0F3FC674B674A00939E
:102BA0006749CF23206820F09CFC66492B68664A61
:102BB000206820F096FC286800F062FD63492068D8
:102BC00020F08FFCFEE7624A62492078FFF774FC30
:102BD00004222078114610F061F80246286010B3F4
:102BE000524C5349206820F07CFC5249206820F068
:102BF00078FC1FF0C4FC1FF0C3FC4F4B4F4A0093FE
:102C00004F49D623206820F06CFC4E492B684E4A71
:102C1000206820F066FC286800F032FD4B492068EF
:102C200020F05FFCFEE70421207810F063F82860B4
:102C300068B9032000F0DEFC00283FF42CAE4649C2
:102C40003A4B18680FB0BDE8F04020F04ABC0320B2
:102C500000F0D0FC00283FF41EAE4049F0E703200E
:102C600000F0C8FC20B1314B3D49186820F039FC18
:102C7000217B3C4B3C4819701EF00CFD2A4B3B4D10
:102C800018780FF0D1FF286010B3284C284920682D
:102C900020F027FC2749206820F023FC1FF06FFC60
:102CA0001FF06EFC244B254A00932549ED23206834
:102CB00020F017FC23492B68234A206820F011FCE0
:102CC000286800F0DDFC2149206820F00AFCFEE7BE
:102CD0001021274A207B10F037F8286000283FF4A5
:102CE000DAAD124C1249206820F0FBFB1149206834
:102CF00020F0F7FB1FF043FC1FF042FC0E4B0F4A85
:102D000000930F49F223206820F0EBFB0D492B685C
:102D10000D4A206820F0E5FB286800F0B1FC0B4963
:102D2000206820F0DEFBFEE7DD0C0020081200200A
:102D3000DAE40300BAE2030080E60300BADF03002E
:102D4000BFE20300CEE20300CBE20300E3E20300B4
:102D50008E2500209825002069E3030082E303000C
:102D6000A0E3030096250020B5E3030084110020B2
:102D700070E60300032000F03DFC20B18A4B8B4934
:102D8000186820F0AEFB042000F034FC28B1864B1C
:102D900022798749186820F0A4FB032000F02AFC60
:102DA00020B1814B8349186820F09BFB042000F080
:102DB00021FC30B17C4BD4F805207F49186820F005
:102DC00090FB7E4DD4F8053004202B6000F012FCFF
:102DD00028B1754B2A687849186820F082FB0420D6
:102DE00000F008FC002822D0A37A6F480D93E37A04
:102DF00073490C93237B0B93637B0A93A37B099307
:102E0000E37B0893237C0793637C0693A37C059361
:102E1000E37C0493237D0393637D0293A37D01935D
:102E2000E37D0093237E627E006820F05AFB00223F
:102E3000644B1A702FE5634D2B7803BB032000F021
:102E4000D9FB20B1584B6049186820F04AFB042098
:102E500000F0D0FB594E28B1534B326856491868E0
:102E600020F03FFB594B1022316820790FF082FF90
:102E7000574B186000287FF40EAD012363E5022B49
:102E80007FF409AD032000F0B5FB00283FF403AD4B
:102E90005049D5E6504B00221988504B4C4D1878BC
:102EA0000FF094FF286018B33F4C4D49206820F084
:102EB00018FB4C49206820F014FB1FF060FB1FF04A
:102EC0005FFB494B494A009349494FF4A37320687B
:102ED00020F007FB47492B68474A206820F001FB98
:102EE000286800F0CDFB4549206820F0FAFAFEE79B
:102EF000032000F07FFB20B12B4B4149186820F0E4
:102F0000F0FA0025284E3F4FA37AAB422EDC032077
:102F100000F070FB20B1244B3149186820F0E1FA31
:102F2000267B04F10D05314628461FF079FAAB5D8A
:102F3000834228D1E37AB12B02D12846FFF706FB62
:102F4000E37AB22B02D12846FFF73AFBE37AB42B9F
:102F500002D12846FFF7D4FBE37AB62B7FF49BAC73
:102F600028460FB0BDE8F040FFF720BC042000F079
:102F700041FB30B104F10B0339465A5D306820F053
:102F8000B0FA0135C0E7032000F034FB20B1064B56
:102F90001D49186820F0A5FA0122AB21E07A0FB094
:102FA000BDE8F040FFF72EBC08120020D0E303007C
:102FB000F6E3030038E4030057E40300881100201F
:102FC00073E4030097250020AFE5030060E60300EB
:102FD00084110020D9E50300342500209625002027
:102FE000DAE40300BAE2030080E60300BADF03007C
:102FF000BFE20300CEE20300CBE20300E3E2030002
:103000000AE6030029E603002FE603002B4D022108
:1030100028780FF01BFE2A4C206018B3294D2A494E
:10302000286820F05EFA2949286820F05AFA1FF033
:10303000A6FA1FF0A5FA264B264A009326494FF41C
:10304000B573286820F04DFA24492368244A28687B
:1030500020F047FA206800F013FB2249286820F08E
:1030600040FAFEE7022128780FF004FE20600028D5
:103070003FF411AC134D1449286820F032FA13497B
:10308000286820F02EFA1FF07AFA1FF079FA104B18
:10309000104A0093104940F26F13286820F021FA7B
:1030A0000E4923680E4A286820F01BFA206800F0B9
:1030B000E7FA0C49286820F014FAFEE7DD0C00203E
:1030C0008411002008120020DAE40300BAE20300B1
:1030D00080E60300BADF0300BFE20300CEE2030094
:1030E000CBE20300E3E20300036837B523F47F4338
:1030F000444A23F00703934240F0818008220021D4
:103100001220414B0FF04CFE044610B33F4D404996
:10311000286820F0E6F93F49286820F0E2F91FF01E
:103120002EFA1FF02DFA3C4B3C4A00933C493D23BC
:10313000286820F0D6F93B4923463B4A286820F00E
:10314000D0F9204600F09CFA3849286820F0C9F9E7
:10315000FEE7014603221420354B0FF021FE044602
:1031600010B32A4D2A49286820F0BBF9294928685C
:1031700020F0B7F91FF003FA1FF002FA264B274A96
:10318000009327494B23286820F0ABF925492346B3
:10319000254A286820F0A5F9204600F071FA234955
:1031A000286820F09EF9FEE7014605221620214BF3
:1031B0000FF0F6FD054610B3144C1549206820F0B9
:1031C00090F91449206820F08CF91FF0D8F91FF00D
:1031D000D7F9114B114A009311495923206820F067
:1031E00080F910492B46104A206820F07AF92846C9
:1031F00000F046FA0D49206820F073F9FEE703B0AD
:1032000030BD00BFA00001008FE6030008120020BF
:10321000DAE40300BAE20300CAE6030098E603001A
:10322000BFE20300CEE20300CBE20300E3E20300CF
:10323000C0E60300C4E6030010B51E4C1FF07BFA85
:10324000236F23F0070343F0020323671FF07AFA8A
:10325000D4F82031002023F0070343F00103C4F821
:103260002031D4F8403123F0030343F00203C4F8C3
:103270004031D4F8603123F0030343F00203C4F873
:103280006031D4F8403223F0030343F00203C4F862
:103290004032D4F8003223F0070343F00203C4F8AD
:1032A0000032D4F8083223F0070343F00203C4F8D5
:1032B000083210BD0080005007B501A801F04CFD98
:1032C0009DF80530012B27D1234A936DDB0313D4DE
:1032D000536B23F4FF0323F4FE4343F4BC1343F482
:1032E000A0635363136B23F4704343F440431363AD
:1032F000136B43F4E06313639DF8043063B94FF03C
:1033000000531B68154B1B68154B1B68154B1B683E
:10331000154B1B68154B1B68154AD2F8803043F0DB
:103320000303C2F8803003F061FB1FF040F903F0A3
:1033300047FB03F003FB03F009FBFFF77DFF03F0FE
:10334000EBFA1FF032F900F0CBFA00F0E1FD03B028
:103350005DF804EB03F096BF00C000500040002071
:103360000080002000C0002000000120004001205B
:103370000080005030B5204D95B00DAC0FCD0FC47E
:1033800095E80700032384E8070001248DF84D30F9
:103390001A4A1B4B0021CDE903231A4B102209A81E
:1033A000CDE905342AF0EAFB4FF48021164B0DAA33
:1033B000CDE907130B238DF824300C238DF825302D
:1033C000124B07A90A9320230B93114B114800932A
:1033D00003AB8DF8314003F03DFD04469DF83230DB
:1033E0004FF4E130002B0CBF032100211FF010F936
:1033F000204615B030BD00BF88E9030000800550AD
:10340000210005000600040224800550A2250020AA
:103410008C110020E4110020831E012B10B512D85E
:10342000012910D8114B04221B6905210020C3F388
:10343000401301F007FB0E4B1B681868A8B1BDE8EC
:103440001040436A18478B1E012B0CD801280CD85A
:10345000BDE810400022054B05211B691046C3F34F
:10346000401301F0EFBA0129E5D910BD00C00350A7
:10347000C80A002008B50449044803F0ADFFBDE8C0
:103480000840FFF777BF00BFC00A0020DC11002012
:10349000014820F090B900BFE4110020014B1A6AE6
:1034A00018681047E41100207FB500240368464ADD
:1034B00023F47F4323F00703934205468DF8084029
:1034C0008DF809408DF80A408DF80B408DF80C40BE
:1034D0008DF80D406DD002F18272934271D1B0F837
:1034E00005301F2B6DD1FF2304A91A4611E90300F3
:1034F0001FF03EF8012814BF41F2FC14334B4FF08B
:103500001F0108BF187004F0FC0228790FF05EFC60
:10351000064610B32E4C2F4920681FF0E2FF2E49BB
:1035200020681FF0DEFF1FF02AF81FF029F82B4B50
:103530002B4A00932B494E2320681FF0D2FF2A49C3
:1035400033462A4A20681FF0CCFF304600F098F836
:10355000274920681FF0C5FFFEE71C4B1B78002B96
:103560002FD028790FF0DEFB054650B3184C1949CF
:1035700020681FF0B6FF184920681FF0B2FF1EF048
:10358000FEFF1EF0FDFF154B154A0093154954230D
:1035900020681FF0A6FF14492B46144A20681FF02C
:1035A000A0FF284600F06CF8114920681FF099FF31
:1035B000FEE7064B1B7823B104B0BDE8704020F055
:1035C000ECB904B070BD00BFA0000601C225002008
:1035D00008120020DAE40300BAE2030021EA030043
:1035E000A4E90300BFE20300CEE20300CBE2030044
:1035F000E3E203000B4B02461B788BB10A4B1B78AE
:10360000834234BF00200120084B1B783BB1084B9C
:103610001B7843FA02F212F0010F08BF0020704736
:103620000120F1E7DE0C0020DF0C0020C325002084
:10363000E00C0020012208B5074B1A700022074B4E
:103640001A700422064B1A701F22064B1A7003F0E0
:10365000F7F9054B186008BDDE0C0020C3250020DB
:10366000DF0C0020E00C002008120020024B034970
:1036700018681FF036BF00BF0812002041EA03009F
:1036800070B50C4C0C49064620681FF02AFF03F069
:10369000D7F90546206803F0C7F93046FFF7E6FF83
:1036A000284603F0C1F920680449BDE870401FF0C6
:1036B00018BF00BF0812002043EA030045EA0300D8
:1036C00007B508201EF0C3FF02238DF80030054B1C
:1036D000684601931EF06CFF082003B05DF804EB10
:1036E0001EF0C1BF006A181008B500F02DF8124B8B
:1036F00012498B4212D30020114B12498B4218D32E
:10370000FEF7D2FD186850F82240586840F8224071
:10371000013298688242F5D30C33EAE70022F8E7D9
:103720001C6844F8220001325C68A242F8D30833D6
:10373000E4E70022F8E700BFC4190400D019040030
:10374000D0190400D01904006FF00100104B114A89
:1037500010B59A60D3F888200F4942F47002C3F87C
:10376000882001F50052106641F2FF705066022079
:10377000C3F8D000BFF34F8FBFF36F8F08244FF40F
:1037800040330648C0F88041D36004600B6110BD2F
:1037900000ED00E0002001000080004400E100E0B6
:1037A000014B1868704700BFD00A0020014B186019
:1037B000704700BFD00A0020084B1B6F03F00703BF
:1037C000022B04D0032B05D0012B05D0FEE7044BC0
:1037D00018687047034BFBE70348704700800050B0
:1037E000D00A0020D40A0020002D310108B5FFF7CF
:1037F000E3FF054B1B6FC3F301330133B0FBF3F061
:10380000024B186008BD00BF00800050CC0A0020A9
:103810000048704700B4C404014B1868704700BFEB
:10382000D40A0020054B1860054B1B6F03F00703FB
:10383000032B01D1FFF7DABF704700BFD40A002085
:103840000080005000487047002D3101174B9868E8
:10385000C0F304400C2822D8DFE800F00921212120
:103860002121071719211B1D1F00114870479B6854
:1038700003F04073B3F1807F13D0B3F1007F12D017
:103880000C4A002B08BF104670470B4870470B4886
:1038900070470B4870470B4870470B487047002033
:1038A00070470A4870470A48704700BF0040015AF5
:1038B000405DC60000093D000024F400C0EA21017B
:1038C00080BA8C010048E801005A620280841E0020
:1038D00040420F00014B1868704700BFD80A002013
:1038E0000020836A10B5B3F5903F0ED21968084ADC
:1038F00091420AD1074C227812F0FD0F04D1DB6906
:10390000984708B90123237010BD4FF48170FBE77D
:1039100007B0CD5EC42500204FF00053074A1A605F
:10392000BFF34F8F0649074BCA6802F4E0621343A6
:10393000CB60BFF34F8F00BFFDE700BF02020FF067
:1039400000ED00E00400FA0505490A68131805486F
:1039500083428CBF4FF0FF320B601046704700BFB0
:10396000DC0A00200080012008B503210123042285
:10397000002001F067F800201EF013FF0122244B05
:103980000C20C3F84424234AD2F8803043F00303C8
:10399000C2F8803000F02AFD1F4B00F5D520D3F887
:1039A000F02000F2FC4042F00102C3F8F020D3F80E
:1039B000FC2042F08072C3F8FC20184AA3F55D4356
:1039C0001A60174B0222B0FBF3F0164B0138186156
:1039D000C3F8F0204FF48072C3F804234FF0604323
:1039E000114A0020C3F8B02F104AC3F8802ED3F834
:1039F000002E42F48072C3F8002EFF2283F82020AC
:103A0000D3F8002E22F48072C3F8002E08BD00BF48
:103A100000D003500080005000ED00E0FF030040A4
:103A2000F8590D00000004E055CEACC509000100B6
:103A30004FF06043D3F8802E30B5D20715D501245E
:103A40000B4D8440D5F8FC2042F08072C5F8FC2074
:103A5000D3F8002E2243C3F8002E53F82020002A6A
:103A6000F0D003F82010002030BD1120FCE700BF8B
:103A700000ED00E02DE9F04F9A46564B85B01B78DB
:103A800006460F461546DDF83C909DF844B0DDF83B
:103A90005080002B00F08D80072A00F28C800E9B56
:103AA000002B00F08880B9F1000F00F08480129B99
:103AB000B3F5006F7FDC012802D1109B002B7AD078
:103AC000454B03EB05131B7B002B76D0434C102298
:103AD000002168462AF052F804EB45141022002F0A
:103AE00059D1394620462AF049F843F21003638041
:103AF000BBF1000F03D1E37843F00303E370374ACF
:103B00000E9B02EB451CCCE90193129B6901013B22
:103B1000C3F30A009DF84C30012E03F003034FEA73
:103B2000836343EA001E53582D48CDF800A000EAF5
:103B300003004EEA0003535041D113230CF1100E41
:103B4000CCF80C309CE80F008EE80F006FF00301FA
:103B5000DCF81C20109B61F39F02012FCCF81C2085
:103B6000CCF8143003D1CCF81890CCF804300027EE
:103B7000194A290102EB051342F80180159A2846DB
:103B80005A60694622469F605E7300F0E9FF38463E
:103B900005B0BDE8F08F0021204629F0EFFF4FF47B
:103BA00044736380BBF1000FA9D1E37843F0300385
:103BB000A4E70C48ECE70C48EAE70C48E8E7B8F162
:103BC000000FD4D19CF8023068F304138CF8023053
:103BD000CDE700BFC52500200C1200208C1200206C
:103BE0000F80FFF3028000F0018000F0078000F0FA
:103BF00038B5124B05461B78DBB1E0B11EF0B3FDC2
:103C00000F4A00231146147B54B92B6001251A0179
:103C100001EB03131D738C501EF0ABFD204638BD25
:103C20000133082B02F11002EDD11EF0A2FD054870
:103C3000F5E70548F3E70548F1E700BFC525002093
:103C40000C120020048000F0028000F0018000F0DF
:103C500013B51EF088FD00230B4A147B7CB9013399
:103C6000082B02F11002F8D1019000F02DFF074B54
:103C700001981C701EF07DFD204602B010BD1EF0A4
:103C800078FD0348F9E700BF0C120020C52500208D
:103C9000058000F00D4B10B51B78044693B1072842
:103CA00012D81EF060FD0A4B03EB04131A7B2AB1F5
:103CB00000241C731EF05DFD204610BD1EF059FD52
:103CC0000448FAE70448F8E70448F6E7C525002069
:103CD0000C120020068000F0028000F0018000F04D
:103CE000154B13B51868002301908DF804301EF0B1
:103CF0003AFD124B1C7824B11EF03BFD104802B077
:103D000010BD01221A701EF034FD0E4B01A81C7369
:103D10001C7783F82C4083F83C4083F84C4083F8B0
:103D20005C4083F86C4083F87C4008238DF80730B2
:103D300000F0ECFE2046E2E798EA0300C5250020EB
:103D4000038000F00C1200200A4A08B512785AB11C
:103D500007280BD8084A02EB00131B7B43B1002154
:103D600000F0C6FE002008BD0448FCE70448FAE75E
:103D70000448F8E7C52500200C120020028000F05E
:103D8000018000F0078000F00A4A08B512785AB1A5
:103D900007280BD8084A02EB00131B7B43B1012113
:103DA00000F0A6FE002008BD0448FCE70448FAE73E
:103DB0000448F8E7C52500200C120020028000F01E
:103DC000018000F0078000F00A4A08B5127852B16D
:103DD00007280AD8084A02EB00131B7B3BB100F00E
:103DE0000DFF002008BD0548FCE70548FAE7054837
:103DF000F8E700BFC52500200C120020028000F06B
:103E0000018000F0078000F00D4B1B7893B107286C
:103E100012D889B10B4B03EB00131B7B73B10A4B18
:103E20001A6D012303FA00F010401ABF00200B7036
:103E30000870704705487047054870470548704747
:103E4000C52500200C12002000000450028000F064
:103E5000018000F0078000F00B4A10B512780C4684
:103E600062B107280CD859B1084A02EB00131B7B3A
:103E700043B100F0D5FE2070002010BD0448FCE7DF
:103E80000448FAE70448F8E7C52500200C12002092
:103E9000028000F0018000F0078000F02DE9F84377
:103EA000174B1F6D5B6D1F4000D5FEE701260025F7
:103EB000144CDFF85480DFF85490374217D0236851
:103EC000C8F850609BB1A168284601316268A160C2
:103ED0009847637B012B0AD148B909EB45131A7B3C
:103EE00060F341021A731A7F60F341021A770135B9
:103EF000082D4FEA460604F11004DED1BDE8F88330
:103F0000000004500C120020002004508C120020ED
:103F1000024B1968024B186816F0F8B8E40A002042
:103F2000E00A002037B5920004460D46019229F0C0
:103F30009FFF431C0BD060B929462046019A29F007
:103F4000E6FD0028044808BF002003B030BD034848
:103F5000FBE70348F9E700BF10E000F021E000F0C4
:103F600024E000F010B5044629F07AFF431C10D07D
:103F700088B900F019FF234620F00300204498423E
:103F800001D1002010BD53F8042B0132F7D00348B3
:103F9000F8E70348F6E70348F4E700BF0EE000F057
:103FA00021E000F024E000F008B51EF0D5FB014B45
:103FB000186008BDCC190020014B18681EF0D0BB5A
:103FC000CC19002041F6713310B5104C104AA042B4
:103FD0008CBF4FF480140024D169D363936801F43B
:103FE000803123F44013234393600A4B98420A4BD9
:103FF000D3F818228CBF42F0020222F00202C3F86A
:10400000182211B10022024BDA6310BD005A62027D
:104010000000035080F0FA0200C007502E4B984277
:104020004AD022D82D4B984240D014D82C4B9842DD
:1040300039D00AD82B4B984232D02B4B98422FD0F4
:104040002A4B98422CD000207047294B9842FAD135
:10405000284B186F7047284B98422AD0274B98421C
:10406000F1D1244BD3F880007047254B98422BD0D8
:1040700009D8244B984223D0234B9842E3D11D4BBF
:10408000D3F88C007047214B984221D003F574037C
:1040900003F510539842D6D1164BD3F898007047C9
:1040A000144B986D7047134B586E7047114B586FF7
:1040B0007047104B986F70470E4BD3F884007047D1
:1040C0000C4BD3F8880070470A4BD3F89000704728
:1040D000084BD3F8940070470048E8010024F4002E
:1040E000C0CF6A0080841E0000093D0040420F00DE
:1040F000405DC6000080E00FC0EA210180BA8C015B
:10410000007E560380D54302006CDC020090D00391
:1041100038B5134B0546D3F820010C4600F00700D4
:10412000042804D8DFE800F01A0A0E121600002353
:10413000184605B1286004B1236038BDFFF730FB95
:104140000423F6E7FFF768FB0323F2E7FFF77EFBA4
:104150000523EEE7FFF776FB0223EAE70123E8E712
:104160000080005037B50C460021124A0191D2F868
:104170008021054602F00302022A0ED0032A11D044
:10418000012A14D101A8FFF7C3FF0D230DB1019A35
:104190002A6004B1236003B030BDFFF757FB05234D
:1041A0000190F3E7FFF74EFB02230190EEE70B4689
:1041B000ECE700BF0080005038B5104B0546D3F83F
:1041C00040310C4603F00303022B0BD0032B0DD020
:1041D000012B0FD11EF02EFA082305B1286004B17F
:1041E000236038BDFFF776FB0723F6E71EF025FABC
:1041F0000923F2E701230020EFE700BF0080005011
:1042000038B5104B0546D3F860310C4603F0030374
:10421000022B0BD0032B0DD0012B0FD11EF00AFA6D
:10422000082305B1286004B1236038BDFFF752FBB5
:104230000723F6E71EF001FA0923F2E70123002025
:10424000EFE700BF0080005038B5144B0546D3F8A7
:1042500000020C4600F00700042804D8DFE800F054
:104260001B0A0E1216000023184605B1286004B17F
:10427000236038BD1EF0DEF90823F6E7FFF72AFBBE
:104280000723F2E71EF0D9F90923EEE7FFF7AEFAAC
:104290000C23800AE9E70123E7E700BF0080005014
:1042A00038B5144B0546D3F808020C4600F0070059
:1042B000042804D8DFE800F01B0A0E1216000023C1
:1042C000184605B1286004B1236038BD1EF0B2F96C
:1042D0000823F6E7FFF7FEFA0723F2E71EF0ADF931
:1042E0000923EEE7FFF782FA0C23800AE9E70123AE
:1042F000E7E700BF0080005038B5104B0546D3F803
:1043000040320C4603F00303022B0BD0032B0DD0DD
:10431000012B0FD11EF08EF9082305B1286004B1DE
:10432000236038BDFFF7D6FA0723F6E71EF085F9BC
:104330000923F2E700231846EFE700BF0080005092
:1043400038B5104B0546D3F800310C4603F0030393
:10435000022B0BD0032B0DD0012B0FD1FFF75CFAF2
:10436000032305B1286004B1236038BDFFF7B2FA1A
:104370000723F6E71EF05CF90623F2E7012300208D
:10438000EFE700BF0080005038B50C4605461EF030
:10439000E3F9064B9A6A82EA040101EA05045440F3
:1043A0009C62BDE838401EF0DBB900BF00C0005081
:1043B000032814D005D8012805D0022809D00020F0
:1043C00005E00F28FBD1084B186FC0F30130013016
:1043D0007047054BD3F89000C0F30460F7E7024B39
:1043E000186FC0F38020F2E7008000501FB5002353
:1043F0000193252817D8DFE800F0131A1D262B3566
:104400003A50555A5F646977161A3F1616551A26A0
:104410002B26351A5026773A3A3A3A2626265A5FFC
:10442000FFF7CAF90190019805B05DF804FBFFF7AA
:10443000DDF9F7E7FFF7C0F902460220FFF7B8FF02
:10444000B2FBF0F0EEE7FFF7D1F902460320F5E703
:10445000FFF7CCF902460320FFF7AAFFB2FBF0F00A
:104460004008DFE7002101A8FFF77CFEDBE7002121
:1044700001A8FFF74DFED6E702934FF0E0231B693A
:104480005B0705D5FFF7B2F90290029B0193CAE7DB
:1044900003A902A8FFF790FEF7E7002101A8FFF7A4
:1044A0008BFEC0E7002101A8FFF7AAFEBBE70021B1
:1044B00001A8FFF7C9FEB6E7002101A8FFF7F0FE4B
:1044C000B1E7002101A8FFF73BFFACE7094BD3F8A8
:1044D000803003F00303022BA9D0032B01D000206E
:1044E000A0E7FFF7B3F99DE7002101A8FFF704FF5C
:1044F00099E700BF0080005008B50120FFF776FF64
:10450000BDE80840034988428CBF022101210320F5
:1045100000F002B880F0FA02032810B50C4627D04C
:1045200004D8012804D0022817D010BD0F28FCD1D0
:104530001EF0F5F81EF0FBF8124B013C196F21F448
:10454000405141EA04341C67FFF750F90021FFF79E
:1045500039FDBDE81040FFF7CFBF0A4B013CD3F84F
:10456000901021F0F85141EA0464C3F89040DCE770
:10457000044B013C196F21F4806141EA84241C67DB
:10458000D3E700BF008000501FB50023019325280A
:1045900021D8DFE800F013202020202A2F454A4FA1
:1045A00054595E7120203420204A202020202A20C7
:1045B0004520712F2F2F2F2020204F54314B1B6F60
:1045C00003F00703013B032B05D8DFE803F00C02DF
:1045D000080A04230193019805B05DF804FB032346
:1045E000F8E70623F6E70223F4E7002001A9FFF726
:1045F000B9FDF0E7002001A9FFF78AFDEBE7029380
:104600004FF0E0231B695B0705D5FFF7EFF80B239D
:104610000393039BDEE703A902A8FFF7CDFDF8E7AC
:10462000002001A9FFF7C8FDD5E7002001A9FFF789
:10463000E7FDD0E7002001A9FFF706FECBE7002049
:1046400001A9FFF72DFEC6E7002001A9FFF778FEBC
:10465000C1E70C4BD3F8803003F00303022B03D0E7
:10466000032B05D00023B5E7FFF7C0F80B23B1E714
:10467000FFF7ECF80523ADE7002001A9FFF73CFEAA
:10468000A9E700BF0080005008B5FFF77DFF0728AD
:104690000ABF024B4FF6FF70188808BDC00C0020FF
:1046A00038B50546FFF7BAFC214B04465A68012A83
:1046B00004D120494A609A699207FCD10020FFF793
:1046C00063FF042803D11EF02AF81EF030F81A4ABE
:1046D00024F04073954221D0184A954221D0184ABF
:1046E000D16811F0060FFBD190689360916803F4D4
:1046F000F81301F4F8118B4216D12846FFF756F84B
:104700000020FFF741FF042810D1FFF76FF80021C8
:10471000FFF758FCBDE83840FFF7EEBE43F00073EA
:10472000DDE743F08073DAE79060E9E738BD00BF6A
:1047300000C0015000E0015040420F0080841E0084
:104740000000015070B504460020FFF71DFF03284C
:104750007CD045F60E030221414AC2F88030414B1D
:104760009962012103F580539962936DD903FCD4BA
:10477000D4E900131B0543EA0163E17B94F822505E
:104780000B43217B94F8236043EA0143617B43EAB6
:104790000133A17B43EA811313619169D4E90403D6
:1047A0001B0643EA806301F000410B43A17EE07EDB
:1047B0000B43217E43EA0143617E43EA0123936177
:1047C000136AE26923F00D03002A0CBF00210821BF
:1047D00043EA020343EA8003214A43EA01031362E6
:1047E00094F820304FEA431331D1906A94F82110A5
:1047F00020F0330043EA0113034343F001039362C3
:10480000194B916D33EA0101FBD10221154B9962DD
:10481000936D5B00FCD41069A36820F4700040EA3B
:10482000035010614FF000420E4B9A611DB90222F5
:1048300003F580539A6216B901220C4B9A6294F8E0
:1048400024301BB1064B0A4AC3F8802070BD916A20
:1048500021F0330131430B4343EA45039362EEE712
:1048600000C0005000D000500300014000E00050A4
:10487000F1A7FFFF13B5184CA16AA36D13F4803F95
:1048800018BF0122154B18BF9A6202229A62A36DCB
:104890005B00FCD4124BA26993F9003022F47F0232
:1048A0000344000222F47F4280B283F308031043E2
:1048B00040EA0340A06102200191FFF765FDA36D6E
:1048C000019913F4803F05D0012002B0BDE81040EB
:1048D000FFF75ABD02B010BD00C0005000D000501C
:1048E000C6250020014B93F900007047C625002023
:1048F00001231048104A816A9362836D03F0030319
:10490000032BFAD1022393620A4B9A6D5000FCD418
:1049100001209A6D084A10659A6D9207FCD4054BE8
:104920009A6D9007FCD59A6D9207FCD50320FFF78E
:104930002BBD00BF00C0005000D00050F0B5D0E942
:1049400001434FF4D1560227164A41780578566242
:10495000154E4F2977604FF0010728BF4F2106F50C
:10496000805677601669F603FCD441EA052151614F
:104970001B01417B43EA04230B43017B43EA4103D0
:104980009360C37B817B1B0143EA4113417C0B4352
:10499000017C43EA41035360837C13B16FF4D1532C
:1049A0005362F0BD0000025000100250014B18800D
:1049B000704700BFC00C0020014B1880704700BF3B
:1049C000BE0C0020034B5868C0F30800003818BF25
:1049D0000120704700ED00E00A4A10B51369044653
:1049E00043F00403136102F0A3FE1DF0C5FE30BFC7
:1049F0001DF0C3FE02F0B0FE1CB9BDE81040FEF78A
:104A0000F5BE10BD00ED00E0084A10B5136904467C
:104A100043F00403136102F08BFE30BF02F09CFEF2
:104A20001CB9BDE81040FEF7E1BE10BD00ED00E08E
:104A3000034A0179D36E23F030030B43D3667047EA
:104A400000400050F8B504460D461F4616464AB1D0
:104A500001238B403021194A01FB0022FFB141F2B2
:104A60001001535004EB4403072D4FF00F014FEAA0
:104A7000031317D8A80006FA00F281401048184422
:104A80001DF07EFE56B9012130230C4801FA05F5D0
:104A900003FB040077B141F21003C550F8BD42F2A8
:104AA0001001DEE7A5F10800800006FA00F281405F
:104AB0000448E4E742F21003EFE700BF00C00350F0
:104AC00004C003500CC003504FF40012064BC3F84F
:104AD0008020BFF34F8FBFF36F8F0022FF21034B66
:104AE0005A6599625A60704700E100E00000045086
:104AF000044A054B002918BF1346012202FA00F0B0
:104B000018607047402004504010045030B50478BD
:104B100045788178C27801200F4B41EA054124068F
:104B200058609C609961FF21996200219963196422
:104B30004FF0004159654FF0FF314FF4001003F57D
:104B40000053196505491301DBB2C1F8800181F8F2
:104B50001533086030BD00BF0000045000E100E0E4
:104B60002DE9F04101250C46C3B2DFF888E0D1F809
:104B700000809D408F7ACB7A94F80DC0097BCEF8E7
:104B800050500EF5005E4EF820804FF0300E184E5B
:104B90001B050EFB006043EA074343EA415322F042
:104BA0000302C0F860C0C36502671DF0DCFD736DD1
:104BB0002B437365237A13B1336C2B433364637ACD
:104BC00013B1B36B2B43B3632279A37943EA024356
:104BD000084A93616179E37943EA014306498B61AD
:104BE000034B55639D64BDE8F0411DF0C2BD00BF9D
:104BF00000000450002004500010045010B501249F
:104C0000C0B284401DF0AFFD044B5A6D22EA04028D
:104C10005A659C62BDE810401DF0ABBD0000045019
:104C200010B50124C0B284401DF09DFD074BDA6A27
:104C3000224209D15B6B34EA03030CBF0124002438
:104C40001DF097FD204610BD0024F9E70000045038
:104C500041F67132034BDA63012203F50053DA6047
:104C6000704700BF0000035041F671320121044B30
:104C7000DA6303F50052D1600022DA63704700BFA7
:104C800000000350CB784A7810B55B010C7843EAFA
:104C900082030A79234343EA02130C22424302F1BE
:104CA000B0421363012C02BF8A78024B43F82020E4
:104CB00010BD00BFD080035008B54FF0B0435A6814
:104CC00002B960B15B680BB11DF06CFD4FF0B041F3
:104CD00030B10120074B58601DF064FDC86008BD6D
:104CE0001DF060FD0223CB601DF05CFD0122024B34
:104CF0005A60F4E700100058002000584FF0B0430D
:104D00005B6870B50BB11DF04DFD0121104B45786E
:104D1000596083780679002BC37814BF02240024DD
:104D2000002B14BF042200224379DB0043EA061360
:104D30002B43234313434FF0B0429360054B59601C
:104D40000378002B14BF0B460223D36070BD00BF55
:104D50000020005800100058054B5B69C3F3851212
:104D6000827003F03F021B0B42700370704700BF5C
:104D700000C0075040F6B732064B5B689BB29342C7
:104D80009FBF4FF47A72B3FBF2F3034AD05C88BF43
:104D9000002070470080E00FC0EA0300014B986CD0
:104DA000D96C70470080E00F0120034B9B680A33E9
:104DB00003F01F03984070470080E00F0D4B9842AE
:104DC00008D1A3F50033C3F88411C36D43F0800309
:104DD000C3657047084B984204D1A3F51033C3F85C
:104DE0009411F2E7054B984204BFA3F52033C3F8B2
:104DF000A411EAE70080055000C0055000000650ED
:104E000070B5054616461C4619B90320FFF7EEFAA1
:104E10000146402C1BD003D8DCB1202C1BD070BD28
:104E2000602CFCD1042303FB06F2560806EB411369
:104E3000B3FBF2F3094A203B02EAC303AA6822F05B
:104E40006002AA60AA681443AC60EB61E7E706233E
:104E5000E9E71023E7E70823E5E700BFF8FF7F0055
:104E6000012200F5805310B55A6040F6AA6341F262
:104E700005024361002312498360C365C26000F5E7
:104E800000520361C361C36491640E498365884223
:104E900006D00D4CA04203D004F58044A0420BD1B3
:104EA0008842036506D0084B984203D003F580433F
:104EB000984201D1002343650123536010BD00BF18
:104EC000FFFF01000080055000C0055070B50D4681
:104ED000FFF7C6FF012300F580567360AB7C0446E4
:104EE0001BB1836843F080438360EB7C1BB1204699
:104EF000297DFFF763FF2A8A6B7B20461343EA89EB
:104F00001343E3602B7BD5E90112FFF779FF6B7D3B
:104F10001BB1A36843F48033A360AB7D1BB1A368CE
:104F200043F40043A360EB7D2A7E1B07120502F4C5
:104F3000E00203F0E0431343A3656A7E931E012B56
:104F4000214B20D89C421AD003F580439C4218D0B4
:104F500003F580439C420CBF02234FF0FF3341F224
:104F6000AC5102205B0103F1A04303F570335850AC
:104F7000032A23D10423F3652B78636170BD0023DA
:104F8000EDE70123EBE79C4214D0104B9C4213D079
:104F900003F580439C420CBF02234FF0FF3342F2E3
:104FA000AC5102205B0103F1A04303F5703358506C
:104FB000012ADEE70023F2E70123F0E7042204F5EB
:104FC0000053DA65D8E700BF0080055000C00550E7
:104FD00038B50446054D28F047F90FCC0FC594E8C5
:104FE0000F0085E80F00002038BD00BF801A0020A8
:104FF00047F6FF739A42F0B566D0022966D8344D61
:10500000CF0015F8313005EBC100012B847813D1A6
:105010000025C3781B1B9D4202D3E018C0B2F0BD2F
:10502000591B4668A3EB510136F911609642D4BF73
:105030000D4601F1FF33EEE740680028EFD0B0F9EC
:105040000030934204DBB0F902309342B8BF1346FC
:1050500082883D44FF2A19BFC8214FF0280CB0F9BF
:105060000610B0F908C0A1EB03020CBF0126002610
:1050700092FBFCF26D78324412B2954201DD002AB7
:1050800001DA6A1E12B24FF47A7700EBC206F18899
:10509000B668013213FB016112B221EAE1715C31A1
:1050A0009542B1FBF7F104DD00EBC206B6888E42F3
:1050B000EBD200EBC20232F8040C884228BF08464B
:1050C000A04238BF2046A9E7FF20A8E70020A6E7B6
:1050D000801A00200229F0B553D82B4800EBC104F8
:1050E00010F83110636801290FD1E078A47890425C
:1050F00094BFC4EB0001C4EB0201001BCAB28242A0
:10510000C8BF002233F91200F0BD002B39D0A178BE
:10511000914202D3B3F90200F6E7E178B3F9000057
:105120009142F1D999886478A1F1FF06013C71425E
:1051300003F10405E4B2714103F10C071FFA82FC8C
:10514000CEB2B44216D805EBC1014FF47A756A436A
:10515000B1F902404968521A04EBD47102EB6102C2
:1051600092FBF4F29042CFDBB3F902009042CBDC29
:1051700010B2C9E737F831E04E1CE645E3D33146BB
:10518000DEE70248C0E700BF801A00200080FFFF72
:1051900008B50448FFF71CFFBDE80840012028F0CF
:1051A00067B800BFC4EA030000487047C20C002083
:1051B0007FB50222084B0949CDE901234FF0007366
:1051C000CDE90313052301A94FF0FF30059328F023
:1051D00081F807B05DF804FB006A180000020400C3
:1051E0002DE9F0418CB08846DDE912761D46044673
:1051F000002847D0002945D0002F43D0002E41D0B1
:1052000013F00F033ED120482049A360002A18BFA5
:105210000146E361C4E90013404609A91DF021FCE1
:1052200068BB204609991DF0D9FA294620461DF091
:10523000D5FA694640461DF0B3FC00BB69462046DE
:105240001DF0B8FA404603A91DF0B5FCB8B92046D8
:1052500003A91DF0AFFA06970127204645F0005537
:1052600006A9079708951DF0A5FA204609A90996F1
:105270000A970B951DF0A8FA20461DF02CFB0CB0E8
:10528000BDE8F0812120FAE70001010400010004DB
:105290002DE9F0438DB0884615461C460746DDF8DB
:1052A0005090002850D000294ED0002A4CD0B9F19F
:1052B000000F49D00B68103B102B45D8012606FA89
:1052C00003F303F0013323F08073002B3CD0002361
:1052D0001E4A8360C0E90023C36109A940461DF04E
:1052E000C0FB70BB384609991DF078FA2146384654
:1052F0001DF074FA694640461DF052FC08BB694631
:1053000038461DF057FA404603A91DF054FCC0B9B9
:10531000384603A91DF04EFA44F00054384606A959
:105320000695079608941DF045FA094B384609A9D9
:10533000CDF824900A960B931DF046FA38461DF0DE
:10534000CAFA0DB0BDE8F0832120FAE7000004049A
:1053500010000020F0B50C4617461E46054695B0D5
:10536000002874D0002972D0002A70D0002B6ED093
:10537000036B0F2B5BD80023364A3846C4E9002361
:10538000A360E36111A91DF06CFB00285BD12046EE
:1053900011991DF023FA296B20460F2984BF01F0D3
:1053A0000F0110311DF01AFA384602A91DF0F8FB62
:1053B000002848D1204602A91DF0FCF9384605A96D
:1053C0001DF0F9FB00283ED1204605A91DF0F2F999
:1053D0000122214B089509920A932B6B05F11000CD
:1053E00003F00F0141F000510B900F2B0C920D9127
:1053F0000E900F9243F00052109226D90A9B08A9F2
:1054000023F0005320460A931DF0D4F90BA920463F
:105410001DF0D0F90123119612930F4B204611A9CC
:1054200013931DF0D1F920461DF055FA0BE000F161
:105430002003019000930122102339462046FFF7F4
:10544000CFFE002897D015B0F0BD0EA9DFE72120D0
:10545000F9E700BF00000404100000202DE9F04F20
:105460009BB00D46914698460646DDF890A0002870
:1054700000F0B380002900F0B080002A00F0AD8079
:10548000002B00F0AA80026B02EB0A031B09B3EBAE
:10549000121F02F00F0700F098800023504A8B6023
:1054A000C1E90023CB61484617A91DF0DAFA04468A
:1054B000002840F0868007EB0A0323F00F0B2846F4
:1054C000179900931DF08AF9594628461DF086F970
:1054D000484602A91DF064FB0446002871D1284605
:1054E00002A91DF067F9484605A91DF064FB0446B2
:1054F000002866D14FF00109284605A91DF05AF988
:10550000384A284608A90896CDF824900A921DF03A
:1055100051F947F00051ABEB070706F1100347F0D4
:1055200000570B93CDF830900D91CDF83880CDF821
:105530003C9010970D99284621F000510D910BA930
:1055400001931DF037F928460EA91DF033F9ABF190
:105550001001244A41F000511194CDF84890139164
:1055600006F120011491CDF8549016921399284613
:1055700041F080411391139921F00051139111A929
:105580001DF022F9284614A91DF01EF9154A17A985
:1055900028461796CDF8609019921DF015F9284607
:1055A0001DF099F9009B0446ABEB0301A3EB0B0242
:1055B000019B51441846414428F0B9FA336B5344D7
:1055C000336320461BB0BDE8F08F10305246414691
:1055D000384428F0ACFA0024F0E72124F1E700BFBA
:1055E00003020004100000202DE9FF4700230E46AF
:1055F00017460446009300285BD00AB1002958D012
:1056000037F0030807F0030A25D04FF000094FF0E8
:10561000E063C4E90039012301962046029301A901
:1056200048F00053C4F80890C4F81C9003931DF090
:10563000CBF8414620461DF0D1F820461DF04BF92D
:10564000054640B142464946304628F097FA28467A
:1056500004B0BDE8F0874FF00009BAF1000F2AD07E
:105660004FF0E063C4E900390123CDF804D0029380
:10567000124B204601A9C4F80890C4F81C9003936B
:105680001DF0A2F8042120461DF0A8F820461DF0C8
:1056900022F9054608B13A46D5E703460099464443
:1056A000DA00013321FA02F29A4506F8012BF7D10C
:1056B000CDE72125CBE75546C9E700BF0400002010
:1056C000F0B50F4616461D46044693B010B921208A
:1056D00013B0F0BD0029FAD0002AF8D0002BF6D084
:1056E000002331461A4638461DF070F90028EFD1E4
:1056F000304602A91DF011F90028E9D13868344973
:10570000029A88426B695ED19342E0D32B68002BEA
:10571000DDD14FF060623846C4E90023A360E36145
:1057200001A91DF09EF90028D2D10199204621F44B
:10573000F06101911DF052F8694628461DF091F97B
:105740000028C5D1204600991DF048F8384609A91F
:105750001DF026FA0028BBD1204609A91DF02AF821
:1057600038460CA91DF027FA0028B1D120460CA913
:105770001DF020F8EB684BB1284606A91DF010FA81
:105780000028A5D1204606A91DF014F8304603A92B
:105790001DF011FA00289BD1204603A91DF00AF83C
:1057A00028460FA91DF007FA002891D120460FA91D
:1057B0001DF00AF8032520461DF08DF8012887D139
:1057C000013DF8D184E7B3EB420F9FD27FE700BFE2
:1057D000200000B070B50E46154604468AB0002879
:1057E0005CD000295AD0002A58D0012329461A46F5
:1057F00030461DF0EBF800284ED1B36813F4C04FCB
:105800004CD0AB6803F4C043B3F5005F46D1254BE1
:10581000A060C4E90030E06107A930461DF021F91D
:10582000002839D1204607991CF0D8FF01230293A4
:105830004FF00053204601A903931CF0BBFF3046F4
:1058400004A91DF0B8F938BB204604A91CF0B2FF2A
:10585000EB681BBBAB6803F4C043B3F5005F1DD11D
:10586000694628461DF07EF8B0B9009B6A699A42E5
:1058700016D32A6943F0005307920122204607A954
:105880000892032509931CF09FFF20461DF023F882
:10589000012801D1013DF8D10AB070BD2120FBE7FC
:1058A0001D20F9E7000001021FB5044698B191B12F
:1058B00000230A4A8360C0E90023C36101230191E8
:1058C0000293074B01A903931CF07EFF20461DF0B5
:1058D00002F804B010BD2120FBE700BF0000084320
:1058E0000400002005289ABF014B185C0020704777
:1058F000B0EB030030B5154B87B00293144B039007
:10590000049346F611030D46059300F06DF9142833
:10591000044616D168461DF05DFA4FF0A8430322F5
:1059200002A95A6319601D619A63DA6B9207FCD170
:10593000142C02D168461DF05BFA00F085F904468C
:1059400001E00028E9D0204607B030BDA01A0020B1
:10595000040000202DE9F04FB1B005468C46E94621
:105960006E4F3B9EDDF8F8E0409C07F1100AC846F8
:10597000386879680837A8E803005745C146F6D16A
:105980000EEB0208C8F1000909F00F09002E00F023
:10599000AF80774207F00F070121DDF8FCB0C4F1BA
:1059A000100ACDF810B0059144F0005106914FEA6D
:1059B0000A2101F4F85141F02101079106B96B4623
:1059C0000893002D40F09680002C00F0938004ABEB
:1059D0000993002E00F0908046F000530A93002DAA
:1059E00040F08D80002C14BF0123212343EA0723BC
:1059F0000B9308A942F00053CDF830C03D980D91AB
:105A00000E934FEA092343F041030F93109002B124
:105A10000CA9002A16BF00224FF00052412342EA8F
:105A20000E021191129213933C9B3D4A149310ABBA
:105A300015933C4B0021169340F6110317933A4BF4
:105A4000002D08BF1346189314AB1993374B10223F
:105A50001A9311231B931CAB184628F08FF80122D0
:105A60001D924AF080421E9200220346239205B9FD
:105A7000EB46102C08BF01230DF1900A10220021E3
:105A80005046CDF880B02193229428F077F8002C6E
:105A900037D020AB002125938F4218BF534647F0E3
:105AA000804226923A9A2CA88A4228922993134639
:105AB0000CBF4FF080430B46102233432B912A93A7
:105AC00028F05CF8FEB95346C8442D932CA948F041
:105AD000804318A82E93FFF70DFF30B92DB9034668
:105AE000A34212D1002818BF2C2031B0BDE8F08F9E
:105AF000102751E701236BE747F000536EE721239E
:105B000074E70123C6E728ABDEE703F1C0026A446D
:105B100012F8C02C01331043E2E700BFB6EB0300DC
:105B2000C8EB030010000020CCEB030004000020B1
:105B3000F0B5C0299FB0249E4FD0B1F5807F04D02E
:105B4000802941D029201FB0F0BD40F2344440F2FA
:105B50001445002E08BF2C4621271025019401244E
:105B60000296039404950597259F069706B102AC0B
:105B700007940124089509940A9221220B940C950C
:105B80000D92174A0AAC0E92164A0F94109242F6E2
:105B900011021192129313941495159201AA169260
:105BA000CBB112AB1793042318931123199316AB9F
:105BB0001A901B9340F61103C9081C911AA806A954
:105BC0001D93FFF797FEBEE7002E14BF4FF48664C7
:105BD0004FF48264C0E70EABE4E70F20B3E700BFE9
:105BE000D0EB030010000010144A38B5D2F8803210
:105BF00043F00103C2F88032114B5B68C3F3080322
:105C000043B14FF0A842D36B13F0430FFBD11424E0
:105C1000204638BD4FF0A843DC6B14F04304FBD1A1
:105C2000084D2B681BB90421284602F079FC2B682B
:105C3000013343F000432B60EAE700BF00800050CF
:105C400000ED00E0A01A0020014B00205B687047C7
:105C500000ED00E0012300F01F02A0F50620094935
:105C6000A0F550604009934051F820201A4341F8B4
:105C70002020054951F8202022EA030341F8203072
:105C8000704700BFA41A0020B81A00200121A0F517
:105C900006230F4AA3F550635B0900F01F0001FAC9
:105CA00000F052F8231008430A4942F82300D1E9D2
:105CB0000030034488680344C868096903445B18DA
:105CC00002BFC2E90033C2E902331361704700BF6B
:105CD000B81A0020A41A00202DE9F04FA9B00292B2
:105CE0001F46DDE9328904460822CDE9030141401F
:105CF00021FA02F34B40980702F1080218BF9B00FB
:105D0000202A1C44F4D18123B4FBF3F303EBC31327
:105D1000E41A784B04F506241B7804F55064002B34
:105D20003CD1FEF7F5F8014620B16FF0910029B0A3
:105D3000BDE8F08F4022059008A827F01FFF402201
:105D4000059918A827F01AFF6B4EDFF8C4A1334657
:105D500003F10F0B102208A9DAF80000CDF800B00B
:105D6000059327F043F800220146059B103608AD45
:105D7000914244D1CDF800B01022DAF8000018A901
:105D800027F03DF84FF0000B034618AD5B4542D1BC
:105D90005A4B9E42DBD10122564B1A7081250026B8
:105DA000DFF86CA1A4F50623554AA3F550635B09FF
:105DB00052F8232004F01F01CA40D2073ED4514AB2
:105DC00052F82300C84010F001002DD0002E08BF6B
:105DD00026468123A4F50724A4F2FF44B4FBF3F381
:105DE00003EBC313E41A04F50624013D04F55064E3
:105DF000D8D1029BD3B1CEB1349B1E6063E055F87D
:105E0000040BCDE906230591FFF724FF069A079BB3
:105E100005990132ACE755F8040B05930BF1010B22
:105E2000FFF734FF059BB1E7029B13B96FF08B00BE
:105E30007DE7349B002E45D01E6078E7B8F1000F57
:105E400002D00023C8F80030B9F1000F02D00023BF
:105E5000C9F800304FF0100B00233A462146DAF81B
:105E60000000CDF800B014F0BFFA70BBB8F1000F1D
:105E700001D0C8F800B03B68234A93422FD1B8F153
:105E8000000F11D0B9F1000F0ED04B462146DAF8C1
:105E9000000018AA14F0FCFAB8B9D9F80030D8F804
:105EA00000209B1AC9F80030D7E90223DDE903106E
:105EB000834208BF8A428CD1029B13B17B68012BBD
:105EC00015D0349B1C60002031E7104B984206D05F
:105ED0001233984203D0133B9842E5D025E7214680
:105EE000DAF8000014F01AFB0028DDD09EE76FF00E
:105EF00084001CE7C7250020006D08000071080021
:105F0000A41A0020B81A0020105D175EFFDF00F011
:105F1000E00A00202DE9F04F87B082468946984676
:105F20001646DDF840B02AB1002B4ED040F26C731B
:105F30009A424DD8BBF1010F4DD8002406F110074D
:105F40003946012005941DF047FD0546002845D03F
:105F500021463A4627F012FE05ABCDE901430094F5
:105F60002B46012250464946FFF7B6FE044680B153
:105F700010F18C0F08BF6FF08D043A4600212846BF
:105F800027F0FCFD28461DF038FD204607B0BDE88F
:105F9000F08F144BC5E902A92B60C5F804B02EB1EF
:105FA0003246414605F1100027F0C1FD0E483B4640
:105FB0002A460599006814F07FF918B90598FFF78B
:105FC00049FEDAE76FF09104D7E76FF08604DCE76B
:105FD0006FF09104D9E76FF08504D6E76FF08C0479
:105FE000D3E700BF105D175EE00A00202DE9F04303
:105FF0008DB08146DDE914780C4615461E469BB1EE
:10600000B8F1000F05D16FF0860420460DB0BDE851
:10601000F083002FF7D0B7F1005FF4D3C3F1005342
:1060200003F5C0339F42EED81022002108A827F0C4
:10603000A5FD002207AB029305AB019306AB2146F9
:106040000093484608ABCDE90522FFF745FE04461C
:106050000028DAD10599DEB1A94203D80029D2D1AE
:1060600015B1D0E70029FBD0491BB14228BF31460A
:10607000069B0948C8F8001000913A460799006845
:106080002B4414F0B1F9002818BF6FF09104BCE75D
:10609000A942E9D2B7E700BFE00A002030B58DB0D1
:1060A0000C4605461022002108A827F067FD0022B3
:1060B00007AB029305AB019306AB2146009328463C
:1060C00008ABCDE90522FFF707FE0446D0B9099BCE
:1060D000012B1AD0104B0799186814F01FFAB8B9A1
:1060E000012207980D49A0F50623A3F550635B092B
:1060F00000F01F05AA4051F823506A4041F82320C0
:10610000FFF7C4FD20460DB030BD6FF08404F9E701
:106110006FF09104F6E700BFE00A0020A41A002007
:106120000F4B984209D010D80E4B984205D020F45E
:106130008070A3F5806398420FD10B88B3F5105F90
:106140000CBF00206FF085007047074B9842F4D0D9
:1061500020F40070A3F58073EDE76FF085007047C1
:106160000010C004004440040012C0042DE9F04FA8
:1061700093B09346DDE91E759846DDE91C23814600
:106180008A46209E29B96FF08604204613B0BDE8E8
:10619000F08FBBF1000FF6D00FB9002DF3D10AB983
:1061A000002BF0D116B9219B002BECD1229B002BA8
:1061B000E9D049464046FFF7B3FF04460028E4D142
:1061C0000146202202A827F0D9FC202221460AA855
:1061D00027F0D4FC02A81CF091FB00283DD15A46C0
:1061E000514648460AAB1CF07BFE04460028CCD141
:1061F0000A981CF069FE04460028C6D115B9229BF6
:106200001860C2E7B74210D27B199E420DD2219B83
:106210009D42B8D82A463946304627F095FC174BA0
:10622000984518D06FF08504AFE7144B9845F9D125
:10623000219B9D42A7D815F00F08A4D1CDE9007687
:106240002B4642460AA902A8FEF7CAFF074638B9FC
:10625000229B1D6099E73746EDE76FF0920494E7C3
:1062600041463046219A27F089FC229B012FC3F832
:106270000080F2D16FF08B0487E700BF0044400438
:106280002DE9F04FB3B00C4605460021164602A892
:1062900020221F46DDF8F080DDF8F89027F06EFC34
:1062A000202200210AA827F069FC2022002112A840
:1062B00027F064FC202200211AA827F05FFC0021AF
:1062C0003C2223A8229127F059FC002C78D0002EE4
:1062D00076D0B8F1000F73D0B9F1000F70D0409BA9
:1062E000002B6DD0B4F800B0B4F802A00BF4E0437A
:1062F000B3F5804F64D03D4B3D4A2B4043F01063D3
:10630000934205D06FF08504204633B0BDE8F08F8E
:106310000AF10703B7EBD30F4FEAD30550D33F9BE6
:106320009D4260D81AA81CF0E9FA10B16FF09204EF
:10633000EAE7002301A91AA80193FFF7B5FA00289C
:10634000F4D1019B2B4A23F07F4393420193D9D987
:1063500047F212139B45D5D1BAF5807FD2D1264B97
:106360000D900A9308F101030E933D9B15900233A3
:1063700023F003030F93402317936B0020461393DE
:106380003A4631460DF1880802ABCDF858801CF032
:10639000A7FD04460028B7D10C9B129043F400538C
:1063A0001AA80C931CF0AAFA0028BFD112AB0AAAB3
:1063B00002A91AA8FFF784F9064620B14828A1D0FF
:1063C0006FF08604A0E72A464146484627F0AFFB17
:1063D000324608EB06030136412E02D1409B1D6078
:1063E00092E71A70F5E76FF089048DE70000FFF679
:1063F000000002090102010020000080F8B51346E8
:1064000042880C460732072A4FEAD20104D0A14243
:1064100002D06FF0860019E047680588C668202220
:106420001846002127F0AAFB3F0A0346002F45D15A
:10643000002CEED041F20102954205D0B5F5885FFF
:1064400002D0B5F5905F02D100205C60F8BDB5F5D3
:10645000105F07D1182C03D0202C01D0102CD8D1DC
:106460001C60F1E705F44F42B2F5824F02D06FF0A5
:106470008500EBE7EAB2122AF9D1202CF7D1114AB4
:1064800025F0FF05B5F5E24F02600DD14FF48042D3
:1064900016F470509A600DD016F48640E7D19A68D1
:1064A00042F480629A60D1E7B5F5824FB1D14FF4E2
:1064B0000052EDE79A6822F48062F3E76FF08B00F8
:1064C000C4E700BF200000802DE9F04F9846038804
:1064D000144603F44F42B3B0B2F5824F0E46DDF8D6
:1064E000F8A002D06FF0850002E021B96FF08600BD
:1064F00033B0BDE8F08F002CF8D0BAF1000FF5D022
:10650000DAB2122AEED123F0FF03B3F5E24F36D10F
:106510004388CAF800306BBBE300CAF80030DAF8F1
:106520000030B3F5807FDDD100231846544935197A
:10653000214411F8017D15F8012D1043D21B0CBF29
:106540004FF0FF370027AE4203EA070343EA020396
:10655000EFD10028CAD0002BC8DA3C9B9C4200F245
:106560008C8022463146404627F0E1FA3D9B0020D0
:106570001C60BDE70733B4EBD30FD0D0B6E7B3F55B
:10658000824F77D10B78042BB0D12022002101A8B3
:1065900027F0F4FA01A81CF0B1F9002867D10090A7
:1065A000694601A8FFF780F9002860D1009B354AB1
:1065B00023F07F43934295D900273E22394622A8F3
:1065C000219727F0DBFA01234FF0420B20223946B6
:1065D00009A88DF8843004F1FF3927F0CFFA731C35
:1065E0002022394611A80D9321ADCDF8389027F01F
:1065F000C5FA2022394619A81595CDF858B027F0CC
:10660000BDFA4FEAC9025208B2F5807FCDE91D5BA1
:10661000CAF800200BD003D8E02A3FF463AF65E747
:10662000B2F5C07F3FF45EAFB2F5047FF5E7164BDD
:1066300009AA099311934FF400530B934FF480432D
:106640001393402311A91A9301A819ABFFF738F847
:10665000DAF800300733DB085A002BB900283FF482
:106660007CAF43E705F8017B013AFBD2F6E76FF018
:1066700092003DE76FF096003AE76FF0890037E748
:10668000D4EB030001020100200000802DE9F04757
:1066900090B0DDF8608006460C4692461A9FB8F12D
:1066A000000F05D16FF08604204610B0BDE8F087DA
:1066B0000393002FF6D00028F4D0202200210DEB08
:1066C000020027F05BFA08A81CF018F9039B10B130
:1066D0006FF09204E8E714F47C1FC4F305452CD056
:1066E000102DDFD8199A954237D81F4A24F47E140A
:1066F000944235D100220DF11009CDE90422CDE9F3
:10670000062231465246CDF8009008A8FEF7C0FD9B
:106710000446B0B92A464946404627F008FA2246C0
:1067200009EB04030134112C09D100243D6008A8B1
:106730001CF0EEF80028B7D0CAE71025D2E71A708F
:10674000EEE7212806D0012814BF6FF092046FF005
:106750008B04ECE76FF08604E9E76FF08904A3E7A8
:106760006FF08504A0E700BF0002C00370B50E46BD
:106770001446054610B96FF0860070BD0029FAD0A6
:106780003822002127F0FAF9094B24F47E129A42AC
:106790000AD13388B3F5105F06D1C4F30543102B3B
:1067A000E9D800202C60E8E76FF08500E5E700BF3E
:1067B0000002C003F0B50F4616461D4604468BB0D6
:1067C00070B302B963BB2022002102A827F0D6F9DA
:1067D00002A81CF093F8A8B92368134A23F47E1387
:1067E000934214D14DB133463A46009502A9201D7B
:1067F000FEF734FE01280DD078B9002402A81CF061
:1068000087F808B16FF0920420460BB0F0BD6FF02E
:106810008804F3E76FF08B04F0E76FF09204EDE784
:106820006FF08604F0E700BF0002C0032DE9F041DD
:106830008CB0884616460446129F002841D0002A94
:106840003FD0002B3DD0002F3BD0102B28BF102372
:106850001D46036813F47C1FC3F3054202D0954222
:1068600028BF15461A4A23F47E1393422CD12022C6
:10687000002104A827F082F9002304A8CDE9003301
:10688000CDE902331CF03AF840B96B46424604A900
:10689000201DFEF75FFD20B100233B606FF09200EA
:1068A0000CE004A81CF034F804460028F4D12A4671
:1068B0006946304627F03BF920463D600CB0BDE804
:1068C000F0816FF08600F9E76FF08800F6E700BF0F
:1068D0000002C0030023C36001F1380303612023D9
:1068E0000A6843618B6D0B4922F47E128A42436031
:1068F00003D001F580718A4208D1102B02D10360C8
:1069000000207047182BFAD0202BF8D06FF08800A9
:10691000704700BF0001C00313B50024064A684653
:10692000536F43F00103536700948DF80440FEF762
:106930007FF8204602B010BD0040005008B5024864
:10694000FDF7AEFE002008BD00B4C40430B58BB026
:106950006C46174D0FCD0FC40FCD0FC495E8030043
:1069600084E80300134BD3F84C21120318D4D3F856
:106970005041E4B28DF81940FDF7B4FF204480F394
:1069800008008DF818000C48FCF74CFF6846FDF72E
:10699000D9FE4FF4FA70FEF70FF800200BB030BDAF
:1069A000064B1C884FF6FF739C4208BF8124E1E729
:1069B000F4EB03000080E00F00F049020001E00F5B
:1069C00030B5094D87B001AC0FCD0FC42B6801A8BD
:1069D000236025238DF80530FDF7B0FF6420FDF717
:1069E000E5FF002007B030BD1CEC03006FF004028F
:1069F000502110B50A480B4C12F0800FD3B21BBFC8
:106A000003F00F03043BA3181B1802F101020CBF93
:106A100083F8001319763D2AEED1002010BD00BF87
:106A200000ED00E000E100E010B504461BF094FE2C
:106A3000024B1C601BF094FE002010BDCC1A0020FD
:106A400010B51BF089FE034B1C681BF089FE204625
:106A500010BD00BFCC1A0020034B0222186800238F
:106A6000806819461AF0B4BEEC0B002030B514460D
:106A7000054687B010461CF080FD636902468342DC
:106A80003CBFD4E903315B181B1A7BB10F49284680
:106A900003910021CDE90131012304940093D4E94D
:106AA00000131BF0EDFD002007B030BD012262761F
:106AB00094F82D20002AF6D084F835301321E369AC
:106AC000204698472046636A9847ECE76D6A0100C4
:106AD0002DE9F04788B004468846174699461BF0D2
:106AE00042FE8246002F7AD0237E03F0FF02002B65
:106AF00000F0A28020461CF040FD6669B04205D13E
:106B0000637ED4E903521544AD1B01E0F9D9851B1E
:106B1000BD4228BF3D461BF026FE94F82D300646A8
:106B2000002B6DD12A464046616927F000F8636961
:106B30002F462B44636121E0037803F0FD01112906
:106B40005BD1216B814205D1A3F111014B424B4135
:106B500084F83430013F6369216B01328B4203F1C9
:106B6000010308BF2363636195426069E4D1D4E9FE
:106B70000323216B1344994200D122630025D4E9F9
:106B8000032361691344994208BF6261207A6576E4
:106B9000FDF7DAF820461CF0F0FC6369834232D13D
:106BA000257694F82D30E568656103B125632046AC
:106BB000636A9847214B2A46039300230293236973
:106BC000216801930123207A0093049463681BF0E9
:106BD00057FD207AFDF7D8F830461BF0CAFD504625
:106BE000C9F800701BF0C5FDD9F80030002B0CBFB0
:106BF0001B20002008B0BDE8F08708F8013BAAE799
:106C00002F460022B0E70123207A23760DF11E01E2
:106C1000FDF722F99DF81E30002BDAD00DF11F018F
:106C2000207AFDF7F1F89DF81F100029D1D12246F6
:106C3000207AFFF71BFFCCE71746D0E76D6A01000B
:106C4000002808DB0123420900F01F0003FA00F0CE
:106C5000014B43F82200704700E100E0002809DB07
:106C60000122430900F01F0002FA00F0024A6033DB
:106C700042F82300704700BF00E100E070B5044611
:106C80000568FFF7DDFE844202D10020FFF7CCFE4D
:106C900095F93600FFF7E2FF95F93630002B0DDB52
:106CA00001215A0903F01F0301FA03F318492032A6
:106CB00041F82230BFF34F8FBFF36F8F95F9370044
:106CC000FFF7CCFF95F93730002B0DDB01215A0976
:106CD00003F01F0301FA03F30D49203241F822307B
:106CE000BFF34F8FBFF36F8F287AFDF76DF8287AC7
:106CF000FCF7D0FFFCF7ACFF00232846C4E90033C3
:106D0000C4E90433A360AB6ABDE87040184700BF14
:106D100000E100E02DE9F0410C461546064686B03C
:106D20004022002120461F4626F028FF95E8030058
:106D300000232A692376EB6884E80300C4E904236E
:106D40002A7DE36084F82C20AA7D2363012384F844
:106D5000343084F835300C9B84F82D2023620D9B51
:106D6000E76163620E9BA3622B7A84F836306B7AFC
:106D700084F837302D4B346073602D4BB3602D4B4E
:106D800033612D4B73612D4BF360FCF7A9FF38B1D4
:106D90002B4B984204D01024204606B0BDE8F08169
:106DA000002104F10800FCF723FF07460028F2D178
:106DB0004FF00108234B3362234B84F83C80B361CE
:106DC000224BF3619DF8403084F8390084F83B3061
:106DD0009DF83C30204684F83A30697D84F838804C
:106DE0001CF0DBFB95F90900FFF738FF95F9090066
:106DF000FFF726FF164B0494CDE902732369CDE912
:106E000000836368E2682168207A1BF039FC04463D
:106E10000028C0D195F90800FFF720FF95F9080078
:106E2000FFF70EFF3046FFF7FFFDB5E7EB35030038
:106E3000D16A0100693503006F3503007D6C0100E4
:106E4000038000F03F3503009B35030075350300D8
:106E50006D6A01002DE9F0414FF001081C46584BC6
:106E600086B00293574B0C9D0193574B17460093E6
:106E70000A46CDE903882946544BFFF74BFF0646E7
:106E8000002876D1236804222B64237985F84430C6
:106E9000A17985F84610607985F84500237A85F850
:106EA0004830E37985F84730A37A85F84A30637A29
:106EB00085F84930237B85F84C30E37A85F84B30F0
:106EC0004346FDF7BFFD43460222217AE079FDF7F4
:106ED000B9FD3E7039462068FDF7F8FF1421A27B0A
:106EE0003B4B03EB4210C0F8AC1594F806C0617937
:106EF0002E3203EB421341EA0C415960227AE379C6
:106F000043EA0243C0F8BC3585F84D607B7E032B15
:106F100053D8DFE803F01F02324D0123002785F824
:106F20004D3000230222A17A607AFDF78BFDA17A11
:106F3000627AA37B42EA014241F2B4515B0103F160
:106F4000A04303F570335A500422236803F580539D
:106F5000DA65AFB963792A6C85F84530A3790521E4
:106F600085F84630D36C206843F00403D3641BF0EB
:106F70005CFC304606B0BDE8F081022385F84D3058
:106F800000230422217BE07AFDF75CFD41F2AC5244
:106F90000221A37B5B0103F1A04303F570339950F9
:106FA000217BE27A42EA014241F2B8515A50D1E7DC
:106FB0000323012785F84D30B3E72326D9E700BF27
:106FC0001537030009370300993703008D37030095
:106FD00000C00350BFF35F8F074B5A6A22F4803220
:106FE0005A62D3F8942022F00102C3F89420BFF330
:106FF0004F8FBFF36F8F704700ED00E070B52648EC
:10700000264CFFF7E7FF844208BF4FF08043244A35
:1070100018BF20F01F03D2F8C01018BF203B21F08A
:10702000FF0141F0A001B3F1005FC2F8C0100CD322
:107030001C4D1D4E296843F00103C2F89810013120
:10704000C2F89C60C2F8A0302960844210D0154874
:10705000164B0268124923F01F0343F00303C1F8E3
:107060009820C1F89C30124B0132C1F8A030026068
:10707000BFF35F8F05220A4BC3F894205A6A42F48B
:1070800080325A62BFF34F8FBFF36F8FBFF34F8FC2
:10709000BFF36F8F70BD00BF000D00209C0E00205D
:1070A00000ED00E0D01A002003000020BB0E0020FD
:1070B000E1FFFF3F10B51446FFF78CFF1F2C24D9CA
:1070C0001C4A1D4CD2F8C03023F47F4343F4807334
:1070D000C2F8C030C2061CBF20F01F002030CB0613
:1070E000144A236818BF21F01F0120F01F0021F06F
:1070F0001F01C2F8983040F0030041F00301013352
:10710000C2F89C00C2F8A0102360BFF35F8F052275
:10711000084BC3F894205A6A42F480325A62BFF393
:107120004F8FBFF36F8FBFF34F8FBFF36F8F002071
:1071300010BD00BF00ED00E0D01A0020BFF34F8F5C
:107140000549064BCA6802F4E0621343CB60BFF303
:107150004F8F00BFFDE700BF00ED00E00400FA051F
:10716000054B1A782AB95B78002B14BF0220032044
:1071700070470120704700BFD02500200329F8B5D3
:1071800098BF124B05460E468CBF00245C5C03285A
:1071900005D8DFE800F002080B0E44F002040C4BA7
:1071A0001F684FB9F8BD44F00804F8E744F0200424
:1071B000F5E744F08004F2E77B681A68144203D0D4
:1071C000314628465B6898473F68EAE730EC0300A1
:1071D000F81A002038B5104D2B78ABB10F4C23783E
:1071E0001BB100F0EFFA0023237000201CF040FBDD
:1071F0000B4C50B100F036FB0023012120782B709E
:10720000FFF7BCFF0123237038BD0122054B1A7024
:107210002278054B1A70F7E7CF250020CA250020F9
:10722000C8250020CE250020D425002010B51BF055
:1072300093FA064B04461B781BB1BDE810401BF0C7
:107240008FBAFFF7C7FF2046F7E700BFC925002028
:10725000002814BF0121FF21074A13780B44137043
:1072600008D0064B1B78012B04D9054B1B780BB9B2
:10727000FFF7B0BF704700BFD0250020C825002011
:10728000CE25002070B51BF067FA124E0546337804
:107290009BB900F005FC044620B128461BF060FABB
:1072A000204670BD0C481BF0CBF900F057FE0B4B8D
:1072B0001C6000F0B9FC0A4B186000F0B3F91CF038
:1072C000D9FA084B002418600123284633701BF0BC
:1072D00047FAE5E7CB250020F81A0020001B002024
:1072E000FC1A0020F41A002000292DE9F34114BFF4
:1072F0000121FF21254A00F1FF30135C0B44135498
:107300003AD0234E3178012936D9FFF729FF0128D9
:10731000044634D81F4F1BF01FFA3B781BB31E4D99
:107320002B781BB901222A701C4A1370DFF8708079
:1073300098F8003033B1019000F044FA002301982E
:1073400088F800301BF00CFA01201CF091FA1BF0B9
:1073500003FA2B782BB1019000F084FA00230198F6
:107360002B7000233B701BF0FBF93078844203D074
:107370002146FFF703FF347002B0BDE8F081032916
:10738000F3D10228F1D11CF079FAEEE7D0250020E4
:10739000C8250020CF250020C9250020CE250020AB
:1073A000CA25002068B51BF0D7F9094B06461B78A3
:1073B000012B04D81BF0D4F90025284668BD054BE5
:1073C0001D6800F083FA054430461BF0C9F9F4E764
:1073D000C8250020001B002038B5416004461BF082
:1073E000BBF90546214604481BF02DF92846BDE8A7
:1073F00038401BF0B5B900BFF81A0020054B1B68D8
:107400005843054B00F5742000F23F20B0FBF3F029
:10741000704700BFFC1A002040420F002DE9F043E6
:1074200085B0EFF3108672B600E000BF1BF06FF876
:10743000002800F08980674D674F2B7823B100202A
:10744000FFF706FF00232B70FFF78AFE0446002893
:1074500000F08180841EE4B2012C40F28380FFF7AB
:107460007FFE0128804604D95C4B1B780BB91CF0C9
:10747000FDF95B4CDFF888912078404507D099F8FA
:10748000003013B94146FFF779FE84F80080B8F167
:10749000010F0FD9DFF8448198F8003053B9514BF0
:1074A0001B7823B900F088F901224F4B1A70012391
:1074B00088F80030207800F0F3F999F8003013B123
:1074C0004A4B1B78237000E000BF06B962B6EFF3A9
:1074D000108672B6464B1A7852B100221A70434B8E
:1074E00020781B78984203D101212170FFF746FED6
:1074F000384600F00FFB1BF015F8804600289CD1A1
:10750000364F3B789BB189F80000DFF8DC9099F8A2
:1075100000301BB100F056F989F8008000201CF003
:10752000A7F900284DD000F09DF900233B702B787F
:1075300023B10020FFF78CFE00232B700021207860
:10754000FFF71CFE0023237000E000BF06B962B6FF
:1075500005B0BDE8F0832B78002B80D0FFF778FED4
:107560002C707CE7002003A900F018FB04460028DB
:107570007FF475AF1F4B039A1B689A4205D8012010
:10758000FFF766FE01232B7069E71B4BD3F80080E1
:1075900000F09CF9039B80449845F0D200F0AEF9CE
:1075A00000280CBF00230423039943F00203CDE914
:1075B000004338462346114AA1EB08011CF05FF94D
:1075C0004DE7012000F06CF906B962B6EFF31086C2
:1075D00072B6A3E7D3250020D41A0020CF250020BF
:1075E000C8250020D2250020CA250020D42500204F
:1075F000CD250020F41A0020001B00202D72010070
:10760000CE25002010B51BF0A7F80022044B1C78F3
:107610001A701BF0A5F800F0EFFB2043C0B210BDBC
:10762000CC2500203849394B0A6F394802F007024F
:1076300070B51A60D1F820318069364DC0F3400032
:10764000032A287058D003F00703981E4342434191
:10765000D1F88022304C02F0010213434FF4C8707D
:107660002370FFF7CBFE2D4B2D4A18600A231668B6
:107670002C49013B13F0FF0341F8040BF9D100EB57
:10768000C003304418442B781060274D6BB3237827
:107690001D4A3BB9D2F8003103F00303591E4B4297
:1076A0004B412370D2F8003103F00303022B25D0A5
:1076B000032B26D0012B18D1FCF7AEF8A8B1144B40
:1076C000411EDC680023024608461946C4F30B0439
:1076D000164E013404EB8404E4FB060119F01AFD94
:1076E000FFF78CFE2B68184428601F20FFF786FEEA
:1076F0002B681844286070BD0123A9E7FCF7EAF85D
:10770000DCE71AF095FFD9E700800050041B002049
:1077100000C00150D6250020D9250020381B0020AC
:107720000C1B0020101B00203C1B002040420F00BF
:10773000074B1A7852B100221A70064A136F23F0D1
:10774000070343F001031367FCF750B8704700BF0D
:10775000D72500200080005008B5124B1B78FBB1E4
:1077600002201CF0EDF8D8B100F04AFAC0B10E4B7F
:107770009A6DD20302D5DB6D9B0711D401220B4B0E
:107780001A701CF0BCF80A4B0A4A1860136F23F0F9
:10779000070343F003031367BDE80840FCF726B86E
:1077A00008BD00BFD925002000C00050D82500200A
:1077B000081B0020008000500122014B1A70704706
:1077C000D7250020F8B51E4B1B78002B36D01D4C5A
:1077D00023789BB91C4B9A6DD20302D5DB6D9B07B6
:1077E0002CD41CF08CF8194B194A1860136F23F035
:1077F000070343F003031367FBF7F8FF1CF07FF860
:10780000124B144D1B68144EC01A2B78134F56F8A8
:10781000232046F82300111A3A681148521A0A2107
:107820003A600932B2FBF1F20133DBB20260B3FB22
:10783000F1F201FB12332B7000232370F8BD00BF5F
:10784000D9250020D825002000C00050081B0020AA
:1078500000800050D5250020101B00200C1B0020AC
:10786000381B002008B51AF08AFF094A0949136F2E
:10787000096823F007030B431367074B1B7813B109
:107880000122064B9A62BDE80840FBF7AFBF00BF7C
:1078900000800050041B0020D925002000E000508B
:1078A00002280AD003280BD001280CD1064A1369FC
:1078B00023F00403136130BF70470020FDF78CB83C
:1078C0000020FDF7A1B8704700ED00E0054B1B78E4
:1078D0001BB1054B1B6803EBD303044A1068184423
:1078E000704700BFD9250020381B00203C1B00201A
:1078F0000122014B1A707047D9250020014B1878DE
:10790000704700BFD925002010B51CF006F80A4CBE
:107910000A4B19682368C31A01B10BB9206010BD66
:107920004A699A423ABF9B1A0022D21A4A6128BF7A
:1079300000238968F0E700BF401B00204C1B00209B
:10794000C38870B504460D463BB9FFF72BFD854251
:10795000064602D21BF07DFF35460F4965610B6874
:10796000ABB90C60A36011E0AD1A9A681846656166
:107970002AB113465A69AA42F6D950B11A4613469B
:107980008460A36013B15969491B596170BD00201F
:10799000F0E70C60F5E700BF4C1B002038B5134D35
:1079A0002B685B6993B1124A022014681C441BF0D7
:1079B000BBFF204600F066FA00230E492A680B70D0
:1079C000D088800709D501230B7038BD02201BF039
:1079D000ABFF022000F0A0FAEEE79268002AF4D094
:1079E00050690344012BEBD9EFE700BF4C1B00208B
:1079F000401B0020DB25002070B516469DF81420A2
:107A0000C0E903360271049ABDF818300260002202
:107A100004460D468260C38006BB1BF07EFF2844EF
:107A2000A0613DB9E368656113B1204621689847BC
:107A300096B135461AF090FE0646FFF765FF2946D7
:107A40002046FFF77DFF074B1B68A34201D1FFF7DC
:107A5000A5FF30461AF084FE002070BD1BF05DFFCC
:107A60003044DDE74C1B002000220C490B687BB141
:107A700083420AD183687AB1936083681BB15A69E3
:107A800041690A445A61002070471A469B68EEE734
:107A90000028EFD0022070470B60EEE74C1B00205F
:107AA00070B51AF060FE144E05463478FCB9134BDD
:107AB0001C60134B1C60134B1C8000F0A9F90120C3
:107AC0001BF032FF1BF04BFF0F4B0246186020B932
:107AD00028461AF04EFE232070BD234640F2E731BF
